{
    "contractName": "WithdrawalModule",
    "abi": [
        {
            "inputs": [
                {
                    "internalType": "address",
                    "name": "_overseer",
                    "type": "address"
                },
                {
                    "internalType": "address",
                    "name": "_stHYPE",
                    "type": "address"
                },
                {
                    "internalType": "address",
                    "name": "_hamm",
                    "type": "address"
                }
            ],
            "stateMutability": "nonpayable",
            "type": "constructor"
        },
        {
            "inputs": [],
            "name": "FailedCall",
            "type": "error"
        },
        {
            "inputs": [
                {
                    "internalType": "uint256",
                    "name": "balance",
                    "type": "uint256"
                },
                {
                    "internalType": "uint256",
                    "name": "needed",
                    "type": "uint256"
                }
            ],
            "name": "InsufficientBalance",
            "type": "error"
        },
        {
            "inputs": [],
            "name": "WithdrawalModule__OnlyHAMM",
            "type": "error"
        },
        {
            "inputs": [],
            "name": "WithdrawalModule__ZeroAddress",
            "type": "error"
        },
        {
            "inputs": [
                {
                    "internalType": "uint256",
                    "name": "",
                    "type": "uint256"
                }
            ],
            "name": "LPWithdrawals",
            "outputs": [
                {
                    "internalType": "address",
                    "name": "recipient",
                    "type": "address"
                },
                {
                    "internalType": "uint256",
                    "name": "amount",
                    "type": "uint256"
                }
            ],
            "stateMutability": "view",
            "type": "function"
        },
        {
            "inputs": [],
            "name": "amountToken0Queue",
            "outputs": [
                {
                    "internalType": "uint256",
                    "name": "",
                    "type": "uint256"
                }
            ],
            "stateMutability": "view",
            "type": "function"
        },
        {
            "inputs": [
                {
                    "internalType": "uint256",
                    "name": "_amountToken0",
                    "type": "uint256"
                }
            ],
            "name": "burnAfterSwap",
            "outputs": [],
            "stateMutability": "nonpayable",
            "type": "function"
        },
        {
            "inputs": [
                {
                    "internalType": "uint256",
                    "name": "_amountToken0",
                    "type": "uint256"
                },
                {
                    "internalType": "address",
                    "name": "_recipient",
                    "type": "address"
                }
            ],
            "name": "burnAfterWithdraw",
            "outputs": [],
            "stateMutability": "nonpayable",
            "type": "function"
        },
        {
            "inputs": [
                {
                    "internalType": "uint256",
                    "name": "_idLPQueue",
                    "type": "uint256"
                }
            ],
            "name": "claim",
            "outputs": [],
            "stateMutability": "nonpayable",
            "type": "function"
        },
        {
            "inputs": [],
            "name": "hamm",
            "outputs": [
                {
                    "internalType": "address",
                    "name": "",
                    "type": "address"
                }
            ],
            "stateMutability": "view",
            "type": "function"
        },
        {
            "inputs": [],
            "name": "idLPQueue",
            "outputs": [
                {
                    "internalType": "uint256",
                    "name": "",
                    "type": "uint256"
                }
            ],
            "stateMutability": "view",
            "type": "function"
        },
        {
            "inputs": [],
            "name": "overseer",
            "outputs": [
                {
                    "internalType": "contract IOverseer",
                    "name": "",
                    "type": "address"
                }
            ],
            "stateMutability": "view",
            "type": "function"
        },
        {
            "inputs": [],
            "name": "stHYPE",
            "outputs": [
                {
                    "internalType": "contract IstHYPE",
                    "name": "",
                    "type": "address"
                }
            ],
            "stateMutability": "view",
            "type": "function"
        },
        {
            "inputs": [],
            "name": "token0LPQueue",
            "outputs": [
                {
                    "internalType": "uint256",
                    "name": "",
                    "type": "uint256"
                }
            ],
            "stateMutability": "view",
            "type": "function"
        },
        {
            "inputs": [],
            "name": "update",
            "outputs": [],
            "stateMutability": "nonpayable",
            "type": "function"
        },
        {
            "stateMutability": "payable",
            "type": "receive"
        }
    ],
    "bytecode": "60e03461010757601f6107ae38819003918201601f19168301916001600160401b0383118484101761010b57808492606094604052833981010312610107576100478161011f565b9061006060406100596020840161011f565b920161011f565b916001600160a01b0316801580156100f6575b80156100e5575b6100d6576080526001600160a01b031660a05260c05260405161067a9081610134823960805181818161023a015261033f015260a05181818161011b01526101c2015260c051818181610178015281816102fb015261039a0152f35b634f7297ef60e11b5f5260045ffd5b506001600160a01b0383161561007a565b506001600160a01b03821615610073565b5f80fd5b634e487b7160e01b5f52604160045260245ffd5b51906001600160a01b03821682036101075756fe608080604052600436101561001c575b50361561001a575f80fd5b005b5f3560e01c9081630f35fcc11461056b57508063149172c91461054e578063379607f51461044757806349c3ff271461036e5780634ba256561461032a578063796c166c146102e65780639828be3214610162578063a2e620451461014a578063cd02751f14610106578063decf6d17146100ea5763fb1b5db8146100a1575f61000f565b346100e65760203660031901126100e6576004355f90815260036020908152604091829020805460019091015483516001600160a01b03909216825291810191909152f35b5f80fd5b346100e6575f3660031901126100e65760205f54604051908152f35b346100e6575f3660031901126100e6576040517f00000000000000000000000000000000000000000000000000000000000000006001600160a01b03168152602090f35b346100e6575f3660031901126100e65761001a6105ec565b346100e65760203660031901126100e6576004357f00000000000000000000000000000000000000000000000000000000000000006001600160a01b031633036102d75760405163705918fd60e11b8152600481018290526020816024817f00000000000000000000000000000000000000000000000000000000000000006001600160a01b03165afa908115610298575f916102a3575b5060209061020c610235935f546105c3565b5f55604051632770a7eb60e21b8152306004820152602481019190915291829081906044820190565b03815f7f00000000000000000000000000000000000000000000000000000000000000006001600160a01b03165af180156102985761027057005b61001a9060203d602011610291575b61028981836105a1565b8101906105d0565b503d61027f565b6040513d5f823e3d90fd5b90506020813d6020116102cf575b816102be602093836105a1565b810103126100e657516102356101fa565b3d91506102b1565b63118adef760e21b5f5260045ffd5b346100e6575f3660031901126100e6576040517f00000000000000000000000000000000000000000000000000000000000000006001600160a01b03168152602090f35b346100e6575f3660031901126100e6576040517f00000000000000000000000000000000000000000000000000000000000000006001600160a01b03168152602090f35b346100e65760403660031901126100e6576024356001600160a01b03811690600435908290036100e6577f00000000000000000000000000000000000000000000000000000000000000006001600160a01b031633036102d757806103d660019283546105c3565b8255604051926103e584610585565b8352602083019081526002545f52600360205260405f2092828060a01b039051166bffffffffffffffffffffffff60a01b845416178355519101556002545f19811461043357600101600255005b634e487b7160e01b5f52601160045260245ffd5b346100e65760203660031901126100e657600435805f526003602052602060405f2060405161047581610585565b81546001600160a01b03168082526001909201549201829052816104aa575b5f83815260036020526040812081815560010155005b814710610537575f80809381935af13d1561052f573d9067ffffffffffffffff821161051b57604051916104e8601f8201601f1916602001846105a1565b82523d5f602084013e5b156104fd5780610494565b80511561050c57805190602001fd5b63d6bda27560e01b5f5260045ffd5b634e487b7160e01b5f52604160045260245ffd5b6060906104f2565b504763cf47918160e01b5f5260045260245260445ffd5b346100e6575f3660031901126100e6576020600154604051908152f35b346100e6575f3660031901126100e6576020906002548152f35b6040810190811067ffffffffffffffff82111761051b57604052565b90601f8019910116810190811067ffffffffffffffff82111761051b57604052565b9190820180921161043357565b908160209103126100e6575190565b9190820391821161043357565b478015610641575f5481818111156106315750505f80555b6001548082111561061e57505f6001555b1561061c57565b565b90610628916105df565b6001555f610615565b61063a916105df565b5f55610604565b5056fea2646970667358221220f26ea9dec5b96280b30304b72a9b61e2fb171e4a3931b3c236a060ece8fae4cf64736f6c634300081c0033",
    "sourcePath": "/Users/happenwah/dev/valantis-hamm/src/WithdrawalModule.sol",
    "compiler": {
        "name": "solc",
        "version": "0.8.28+commit.7893614a"
    },
    "functionHashes": {
        "LPWithdrawals(uint256)": "fb1b5db8",
        "amountToken0Queue()": "decf6d17",
        "burnAfterSwap(uint256)": "9828be32",
        "burnAfterWithdraw(uint256,address)": "49c3ff27",
        "claim(uint256)": "379607f5",
        "hamm()": "796c166c",
        "idLPQueue()": "0f35fcc1",
        "overseer()": "4ba25656",
        "stHYPE()": "cd02751f",
        "token0LPQueue()": "149172c9",
        "update()": "a2e62045"
    },
    "gasEstimates": {
        "creation": {
            "codeDepositCost": "331600",
            "executionCost": "infinite",
            "totalCost": "infinite"
        },
        "external": {
            "LPWithdrawals(uint256)": "4714",
            "amountToken0Queue()": "2453",
            "burnAfterSwap(uint256)": "infinite",
            "burnAfterWithdraw(uint256,address)": "infinite",
            "claim(uint256)": "infinite",
            "hamm()": "infinite",
            "idLPQueue()": "2248",
            "overseer()": "infinite",
            "stHYPE()": "infinite",
            "token0LPQueue()": "2278",
            "update()": "31798"
        }
    }
}